{
  "_format": "hh-sol-artifact-1",
  "contractName": "Portfolio",
  "sourceName": "contracts/Portfolio.sol",
  "abi": [
    {
      "inputs": [],
      "stateMutability": "nonpayable",
      "type": "constructor"
    },
    {
      "inputs": [],
      "name": "allEducation",
      "outputs": [
        {
          "components": [
            {
              "internalType": "uint256",
              "name": "edId",
              "type": "uint256"
            },
            {
              "internalType": "string",
              "name": "Degree",
              "type": "string"
            },
            {
              "internalType": "string",
              "name": "Course",
              "type": "string"
            },
            {
              "internalType": "string",
              "name": "InstitutionName",
              "type": "string"
            },
            {
              "internalType": "string",
              "name": "date",
              "type": "string"
            }
          ],
          "internalType": "struct Portfolio.Education[3]",
          "name": "",
          "type": "tuple[3]"
        }
      ],
      "stateMutability": "view",
      "type": "function"
    },
    {
      "inputs": [],
      "name": "allProjects",
      "outputs": [
        {
          "components": [
            {
              "internalType": "uint256",
              "name": "id",
              "type": "uint256"
            },
            {
              "internalType": "string",
              "name": "PNAme",
              "type": "string"
            },
            {
              "internalType": "string",
              "name": "PDesc",
              "type": "string"
            },
            {
              "internalType": "string",
              "name": "image",
              "type": "string"
            },
            {
              "internalType": "string",
              "name": "Plink",
              "type": "string"
            }
          ],
          "internalType": "struct Portfolio.Project[3]",
          "name": "",
          "type": "tuple[3]"
        }
      ],
      "stateMutability": "view",
      "type": "function"
    },
    {
      "inputs": [
        {
          "internalType": "string",
          "name": "_desc",
          "type": "string"
        }
      ],
      "name": "changeDescription",
      "outputs": [],
      "stateMutability": "nonpayable",
      "type": "function"
    },
    {
      "inputs": [
        {
          "internalType": "uint24",
          "name": "_edId",
          "type": "uint24"
        },
        {
          "internalType": "string",
          "name": "_Degree",
          "type": "string"
        },
        {
          "internalType": "string",
          "name": "_Course",
          "type": "string"
        },
        {
          "internalType": "string",
          "name": "_Institution",
          "type": "string"
        },
        {
          "internalType": "string",
          "name": "_date",
          "type": "string"
        }
      ],
      "name": "changeEducation",
      "outputs": [],
      "stateMutability": "nonpayable",
      "type": "function"
    },
    {
      "inputs": [
        {
          "internalType": "string",
          "name": "_image",
          "type": "string"
        }
      ],
      "name": "changeImage",
      "outputs": [],
      "stateMutability": "nonpayable",
      "type": "function"
    },
    {
      "inputs": [
        {
          "internalType": "string",
          "name": "_name",
          "type": "string"
        },
        {
          "internalType": "string",
          "name": "_desc",
          "type": "string"
        },
        {
          "internalType": "string",
          "name": "_plink",
          "type": "string"
        },
        {
          "internalType": "string",
          "name": "_image",
          "type": "string"
        },
        {
          "internalType": "uint256",
          "name": "_projectCount",
          "type": "uint256"
        }
      ],
      "name": "changeProject",
      "outputs": [],
      "stateMutability": "nonpayable",
      "type": "function"
    },
    {
      "inputs": [
        {
          "internalType": "string",
          "name": "_resume",
          "type": "string"
        }
      ],
      "name": "changeREsume",
      "outputs": [],
      "stateMutability": "nonpayable",
      "type": "function"
    },
    {
      "inputs": [],
      "name": "description",
      "outputs": [
        {
          "internalType": "string",
          "name": "",
          "type": "string"
        }
      ],
      "stateMutability": "view",
      "type": "function"
    },
    {
      "inputs": [],
      "name": "donate",
      "outputs": [],
      "stateMutability": "payable",
      "type": "function"
    },
    {
      "inputs": [
        {
          "internalType": "uint256",
          "name": "",
          "type": "uint256"
        }
      ],
      "name": "education",
      "outputs": [
        {
          "internalType": "uint256",
          "name": "edId",
          "type": "uint256"
        },
        {
          "internalType": "string",
          "name": "Degree",
          "type": "string"
        },
        {
          "internalType": "string",
          "name": "Course",
          "type": "string"
        },
        {
          "internalType": "string",
          "name": "InstitutionName",
          "type": "string"
        },
        {
          "internalType": "string",
          "name": "date",
          "type": "string"
        }
      ],
      "stateMutability": "view",
      "type": "function"
    },
    {
      "inputs": [
        {
          "internalType": "string",
          "name": "_Degree",
          "type": "string"
        },
        {
          "internalType": "string",
          "name": "_Course",
          "type": "string"
        },
        {
          "internalType": "string",
          "name": "_Institution",
          "type": "string"
        },
        {
          "internalType": "string",
          "name": "_date",
          "type": "string"
        }
      ],
      "name": "insertEducation",
      "outputs": [],
      "stateMutability": "nonpayable",
      "type": "function"
    },
    {
      "inputs": [
        {
          "internalType": "string",
          "name": "_name",
          "type": "string"
        },
        {
          "internalType": "string",
          "name": "_desc",
          "type": "string"
        },
        {
          "internalType": "string",
          "name": "_plink",
          "type": "string"
        },
        {
          "internalType": "string",
          "name": "_image",
          "type": "string"
        }
      ],
      "name": "insertProject",
      "outputs": [],
      "stateMutability": "nonpayable",
      "type": "function"
    },
    {
      "inputs": [],
      "name": "manager",
      "outputs": [
        {
          "internalType": "address",
          "name": "",
          "type": "address"
        }
      ],
      "stateMutability": "view",
      "type": "function"
    },
    {
      "inputs": [],
      "name": "profiledp",
      "outputs": [
        {
          "internalType": "string",
          "name": "",
          "type": "string"
        }
      ],
      "stateMutability": "view",
      "type": "function"
    },
    {
      "inputs": [
        {
          "internalType": "uint256",
          "name": "",
          "type": "uint256"
        }
      ],
      "name": "projects",
      "outputs": [
        {
          "internalType": "uint256",
          "name": "id",
          "type": "uint256"
        },
        {
          "internalType": "string",
          "name": "PNAme",
          "type": "string"
        },
        {
          "internalType": "string",
          "name": "PDesc",
          "type": "string"
        },
        {
          "internalType": "string",
          "name": "image",
          "type": "string"
        },
        {
          "internalType": "string",
          "name": "Plink",
          "type": "string"
        }
      ],
      "stateMutability": "view",
      "type": "function"
    },
    {
      "inputs": [],
      "name": "resume",
      "outputs": [
        {
          "internalType": "string",
          "name": "",
          "type": "string"
        }
      ],
      "stateMutability": "view",
      "type": "function"
    }
  ],
  "bytecode": "0x60806040526040518060600160405280602e815260200162002e0a602e9139600090816200002e91906200038a565b506040518060600160405280602e815260200162002ddc602e9139600190816200005991906200038a565b5060405180602001604052806000815250600290816200007a91906200038a565b506000602160006101000a81548162ffffff021916908362ffffff1602179055506000602160036101000a81548162ffffff021916908362ffffff160217905550348015620000c857600080fd5b5033602160066101000a81548173ffffffffffffffffffffffffffffffffffffffff021916908373ffffffffffffffffffffffffffffffffffffffff16021790555062000471565b600081519050919050565b7f4e487b7100000000000000000000000000000000000000000000000000000000600052604160045260246000fd5b7f4e487b7100000000000000000000000000000000000000000000000000000000600052602260045260246000fd5b600060028204905060018216806200019257607f821691505b602082108103620001a857620001a76200014a565b5b50919050565b60008190508160005260206000209050919050565b60006020601f8301049050919050565b600082821b905092915050565b600060088302620002127fffffffffffffffffffffffffffffffffffffffffffffffffffffffffffffffff82620001d3565b6200021e8683620001d3565b95508019841693508086168417925050509392505050565b6000819050919050565b6000819050919050565b60006200026b620002656200025f8462000236565b62000240565b62000236565b9050919050565b6000819050919050565b62000287836200024a565b6200029f620002968262000272565b848454620001e0565b825550505050565b600090565b620002b6620002a7565b620002c38184846200027c565b505050565b5b81811015620002eb57620002df600082620002ac565b600181019050620002c9565b5050565b601f8211156200033a576200030481620001ae565b6200030f84620001c3565b810160208510156200031f578190505b620003376200032e85620001c3565b830182620002c8565b50505b505050565b600082821c905092915050565b60006200035f600019846008026200033f565b1980831691505092915050565b60006200037a83836200034c565b9150826002028217905092915050565b620003958262000110565b67ffffffffffffffff811115620003b157620003b06200011b565b5b620003bd825462000179565b620003ca828285620002ef565b600060209050601f831160018114620004025760008415620003ed578287015190505b620003f985826200036c565b86555062000469565b601f1984166200041286620001ae565b60005b828110156200043c5784890151825560018201915060208501945060208101905062000415565b868310156200045c578489015162000458601f8916826200034c565b8355505b6001600288020188555050505b505050505050565b61295b80620004816000396000f3fe6080604052600436106100f35760003560e01c80637284e4161161008a578063e5b9453211610059578063e5b945321461031e578063e612041314610349578063ed88c68e14610372578063ff3858ac1461037c576100f3565b80637284e4161461025e57806398f831b614610289578063bad682c6146102b2578063ccffed14146102f3576100f3565b80632adf13b2116100c65780632adf13b2146101b6578063481c6a75146101e15780636426d4c31461020c5780636fe8e0bd14610235576100f3565b8063046f7da2146100f85780630544491814610123578063107046bd1461014c5780631b72b1661461018d575b600080fd5b34801561010457600080fd5b5061010d6103a5565b60405161011a9190611aae565b60405180910390f35b34801561012f57600080fd5b5061014a60048036038101906101459190611b3f565b610433565b005b34801561015857600080fd5b50610173600480360381019061016e9190611bc2565b610449565b604051610184959493929190611bfe565b60405180910390f35b34801561019957600080fd5b506101b460048036038101906101af9190611ca8565b6106a5565b005b3480156101c257600080fd5b506101cb6108d9565b6040516101d89190611f3e565b60405180910390f35b3480156101ed57600080fd5b506101f6610b7c565b6040516102039190611fa1565b60405180910390f35b34801561021857600080fd5b50610233600480360381019061022e9190611fbc565b610ba2565b005b34801561024157600080fd5b5061025c600480360381019061025791906120a5565b610e23565b005b34801561026a57600080fd5b50610273611032565b6040516102809190611aae565b60405180910390f35b34801561029557600080fd5b506102b060048036038101906102ab9190611fbc565b6110c0565b005b3480156102be57600080fd5b506102d960048036038101906102d49190611bc2565b611341565b6040516102ea959493929190611bfe565b60405180910390f35b3480156102ff57600080fd5b5061030861159d565b6040516103159190611aae565b60405180910390f35b34801561032a57600080fd5b5061033361162b565b60405161034091906122e2565b60405180910390f35b34801561035557600080fd5b50610370600480360381019061036b9190611b3f565b6118cf565b005b61037a6118e5565b005b34801561038857600080fd5b506103a3600480360381019061039e9190611b3f565b611950565b005b600180546103b290612333565b80601f01602080910402602001604051908101604052809291908181526020018280546103de90612333565b801561042b5780601f106104005761010080835404028352916020019161042b565b820191906000526020600020905b81548152906001019060200180831161040e57829003601f168201915b505050505081565b81816001918261044492919061254a565b505050565b6003816003811061045957600080fd5b6005020160009150905080600001549080600101805461047890612333565b80601f01602080910402602001604051908101604052809291908181526020018280546104a490612333565b80156104f15780601f106104c6576101008083540402835291602001916104f1565b820191906000526020600020905b8154815290600101906020018083116104d457829003601f168201915b50505050509080600201805461050690612333565b80601f016020809104026020016040519081016040528092919081815260200182805461053290612333565b801561057f5780601f106105545761010080835404028352916020019161057f565b820191906000526020600020905b81548152906001019060200180831161056257829003601f168201915b50505050509080600301805461059490612333565b80601f01602080910402602001604051908101604052809291908181526020018280546105c090612333565b801561060d5780601f106105e25761010080835404028352916020019161060d565b820191906000526020600020905b8154815290600101906020018083116105f057829003601f168201915b50505050509080600401805461062290612333565b80601f016020809104026020016040519081016040528092919081815260200182805461064e90612333565b801561069b5780601f106106705761010080835404028352916020019161069b565b820191906000526020600020905b81548152906001019060200180831161067e57829003601f168201915b5050505050905085565b60008962ffffff16101580156106c0575060038962ffffff16105b6106ff576040517f08c379a00000000000000000000000000000000000000000000000000000000081526004016106f690612666565b60405180910390fd5b6040518060a001604052808a62ffffff16815260200189898080601f016020809104026020016040519081016040528093929190818152602001838380828437600081840152601f19601f82011690508083019250505050505050815260200187878080601f016020809104026020016040519081016040528093929190818152602001838380828437600081840152601f19601f82011690508083019250505050505050815260200185858080601f016020809104026020016040519081016040528093929190818152602001838380828437600081840152601f19601f82011690508083019250505050505050815260200183838080601f016020809104026020016040519081016040528093929190818152602001838380828437600081840152601f19601f820116905080830192505050505050508152506012602160039054906101000a900462ffffff1662ffffff166003811061086557610864612686565b5b6005020160008201518160000155602082015181600101908161088891906126b5565b50604082015181600201908161089e91906126b5565b5060608201518160030190816108b491906126b5565b5060808201518160040190816108ca91906126b5565b50905050505050505050505050565b6108e1611966565b60038080602002604051908101604052809291906000905b82821015610b73578382600502016040518060a00160405290816000820154815260200160018201805461092c90612333565b80601f016020809104026020016040519081016040528092919081815260200182805461095890612333565b80156109a55780601f1061097a576101008083540402835291602001916109a5565b820191906000526020600020905b81548152906001019060200180831161098857829003601f168201915b505050505081526020016002820180546109be90612333565b80601f01602080910402602001604051908101604052809291908181526020018280546109ea90612333565b8015610a375780601f10610a0c57610100808354040283529160200191610a37565b820191906000526020600020905b815481529060010190602001808311610a1a57829003601f168201915b50505050508152602001600382018054610a5090612333565b80601f0160208091040260200160405190810160405280929190818152602001828054610a7c90612333565b8015610ac95780601f10610a9e57610100808354040283529160200191610ac9565b820191906000526020600020905b815481529060010190602001808311610aac57829003601f168201915b50505050508152602001600482018054610ae290612333565b80601f0160208091040260200160405190810160405280929190818152602001828054610b0e90612333565b8015610b5b5780601f10610b3057610100808354040283529160200191610b5b565b820191906000526020600020905b815481529060010190602001808311610b3e57829003601f168201915b505050505081525050815260200190600101906108f9565b50505050905090565b602160069054906101000a900473ffffffffffffffffffffffffffffffffffffffff1681565b6003602160009054906101000a900462ffffff1662ffffff1610610bfb576040517f08c379a0000000000000000000000000000000000000000000000000000000008152600401610bf2906127d3565b60405180910390fd5b6040518060a00160405280602160009054906101000a900462ffffff1662ffffff16815260200189898080601f016020809104026020016040519081016040528093929190818152602001838380828437600081840152601f19601f82011690508083019250505050505050815260200187878080601f016020809104026020016040519081016040528093929190818152602001838380828437600081840152601f19601f82011690508083019250505050505050815260200185858080601f016020809104026020016040519081016040528093929190818152602001838380828437600081840152601f19601f82011690508083019250505050505050815260200183838080601f016020809104026020016040519081016040528093929190818152602001838380828437600081840152601f19601f820116905080830192505050505050508152506003602160009054906101000a900462ffffff1662ffffff1660038110610d7257610d71612686565b5b60050201600082015181600001556020820151816001019081610d9591906126b5565b506040820151816002019081610dab91906126b5565b506060820151816003019081610dc191906126b5565b506080820151816004019081610dd791906126b5565b509050506021600081819054906101000a900462ffffff1680929190610dfc90612822565b91906101000a81548162ffffff021916908362ffffff160217905550505050505050505050565b60008110158015610e345750600381105b610e73576040517f08c379a0000000000000000000000000000000000000000000000000000000008152600401610e6a90612899565b60405180910390fd5b6040518060a001604052808281526020018a8a8080601f016020809104026020016040519081016040528093929190818152602001838380828437600081840152601f19601f82011690508083019250505050505050815260200188888080601f016020809104026020016040519081016040528093929190818152602001838380828437600081840152601f19601f82011690508083019250505050505050815260200186868080601f016020809104026020016040519081016040528093929190818152602001838380828437600081840152601f19601f82011690508083019250505050505050815260200184848080601f016020809104026020016040519081016040528093929190818152602001838380828437600081840152601f19601f8201169050808301925050505050505081525060038260038110610fbe57610fbd612686565b5b60050201600082015181600001556020820151816001019081610fe191906126b5565b506040820151816002019081610ff791906126b5565b50606082015181600301908161100d91906126b5565b50608082015181600401908161102391906126b5565b50905050505050505050505050565b6002805461103f90612333565b80601f016020809104026020016040519081016040528092919081815260200182805461106b90612333565b80156110b85780601f1061108d576101008083540402835291602001916110b8565b820191906000526020600020905b81548152906001019060200180831161109b57829003601f168201915b505050505081565b6003602160039054906101000a900462ffffff1662ffffff1610611119576040517f08c379a000000000000000000000000000000000000000000000000000000000815260040161111090612905565b60405180910390fd5b6040518060a00160405280602160039054906101000a900462ffffff1662ffffff16815260200189898080601f016020809104026020016040519081016040528093929190818152602001838380828437600081840152601f19601f82011690508083019250505050505050815260200187878080601f016020809104026020016040519081016040528093929190818152602001838380828437600081840152601f19601f82011690508083019250505050505050815260200185858080601f016020809104026020016040519081016040528093929190818152602001838380828437600081840152601f19601f82011690508083019250505050505050815260200183838080601f016020809104026020016040519081016040528093929190818152602001838380828437600081840152601f19601f820116905080830192505050505050508152506012602160039054906101000a900462ffffff1662ffffff16600381106112905761128f612686565b5b600502016000820151816000015560208201518160010190816112b391906126b5565b5060408201518160020190816112c991906126b5565b5060608201518160030190816112df91906126b5565b5060808201518160040190816112f591906126b5565b509050506021600381819054906101000a900462ffffff168092919061131a90612822565b91906101000a81548162ffffff021916908362ffffff160217905550505050505050505050565b6012816003811061135157600080fd5b6005020160009150905080600001549080600101805461137090612333565b80601f016020809104026020016040519081016040528092919081815260200182805461139c90612333565b80156113e95780601f106113be576101008083540402835291602001916113e9565b820191906000526020600020905b8154815290600101906020018083116113cc57829003601f168201915b5050505050908060020180546113fe90612333565b80601f016020809104026020016040519081016040528092919081815260200182805461142a90612333565b80156114775780601f1061144c57610100808354040283529160200191611477565b820191906000526020600020905b81548152906001019060200180831161145a57829003601f168201915b50505050509080600301805461148c90612333565b80601f01602080910402602001604051908101604052809291908181526020018280546114b890612333565b80156115055780601f106114da57610100808354040283529160200191611505565b820191906000526020600020905b8154815290600101906020018083116114e857829003601f168201915b50505050509080600401805461151a90612333565b80601f016020809104026020016040519081016040528092919081815260200182805461154690612333565b80156115935780601f1061156857610100808354040283529160200191611593565b820191906000526020600020905b81548152906001019060200180831161157657829003601f168201915b5050505050905085565b600080546115aa90612333565b80601f01602080910402602001604051908101604052809291908181526020018280546115d690612333565b80156116235780601f106115f857610100808354040283529160200191611623565b820191906000526020600020905b81548152906001019060200180831161160657829003601f168201915b505050505081565b611633611993565b6012600380602002604051908101604052809291906000905b828210156118c6578382600502016040518060a00160405290816000820154815260200160018201805461167f90612333565b80601f01602080910402602001604051908101604052809291908181526020018280546116ab90612333565b80156116f85780601f106116cd576101008083540402835291602001916116f8565b820191906000526020600020905b8154815290600101906020018083116116db57829003601f168201915b5050505050815260200160028201805461171190612333565b80601f016020809104026020016040519081016040528092919081815260200182805461173d90612333565b801561178a5780601f1061175f5761010080835404028352916020019161178a565b820191906000526020600020905b81548152906001019060200180831161176d57829003601f168201915b505050505081526020016003820180546117a390612333565b80601f01602080910402602001604051908101604052809291908181526020018280546117cf90612333565b801561181c5780601f106117f15761010080835404028352916020019161181c565b820191906000526020600020905b8154815290600101906020018083116117ff57829003601f168201915b5050505050815260200160048201805461183590612333565b80601f016020809104026020016040519081016040528092919081815260200182805461186190612333565b80156118ae5780601f10611883576101008083540402835291602001916118ae565b820191906000526020600020905b81548152906001019060200180831161189157829003601f168201915b5050505050815250508152602001906001019061164c565b50505050905090565b8181600291826118e092919061254a565b505050565b602160069054906101000a900473ffffffffffffffffffffffffffffffffffffffff1673ffffffffffffffffffffffffffffffffffffffff166108fc349081150290604051600060405180830381858888f1935050505015801561194d573d6000803e3d6000fd5b50565b81816000918261196192919061254a565b505050565b60405180606001604052806003905b61197d6119c0565b8152602001906001900390816119755790505090565b60405180606001604052806003905b6119aa6119ef565b8152602001906001900390816119a25790505090565b6040518060a0016040528060008152602001606081526020016060815260200160608152602001606081525090565b6040518060a0016040528060008152602001606081526020016060815260200160608152602001606081525090565b600081519050919050565b600082825260208201905092915050565b60005b83811015611a58578082015181840152602081019050611a3d565b60008484015250505050565b6000601f19601f8301169050919050565b6000611a8082611a1e565b611a8a8185611a29565b9350611a9a818560208601611a3a565b611aa381611a64565b840191505092915050565b60006020820190508181036000830152611ac88184611a75565b905092915050565b600080fd5b600080fd5b600080fd5b600080fd5b600080fd5b60008083601f840112611aff57611afe611ada565b5b8235905067ffffffffffffffff811115611b1c57611b1b611adf565b5b602083019150836001820283011115611b3857611b37611ae4565b5b9250929050565b60008060208385031215611b5657611b55611ad0565b5b600083013567ffffffffffffffff811115611b7457611b73611ad5565b5b611b8085828601611ae9565b92509250509250929050565b6000819050919050565b611b9f81611b8c565b8114611baa57600080fd5b50565b600081359050611bbc81611b96565b92915050565b600060208284031215611bd857611bd7611ad0565b5b6000611be684828501611bad565b91505092915050565b611bf881611b8c565b82525050565b600060a082019050611c136000830188611bef565b8181036020830152611c258187611a75565b90508181036040830152611c398186611a75565b90508181036060830152611c4d8185611a75565b90508181036080830152611c618184611a75565b90509695505050505050565b600062ffffff82169050919050565b611c8581611c6d565b8114611c9057600080fd5b50565b600081359050611ca281611c7c565b92915050565b600080600080600080600080600060a08a8c031215611cca57611cc9611ad0565b5b6000611cd88c828d01611c93565b99505060208a013567ffffffffffffffff811115611cf957611cf8611ad5565b5b611d058c828d01611ae9565b985098505060408a013567ffffffffffffffff811115611d2857611d27611ad5565b5b611d348c828d01611ae9565b965096505060608a013567ffffffffffffffff811115611d5757611d56611ad5565b5b611d638c828d01611ae9565b945094505060808a013567ffffffffffffffff811115611d8657611d85611ad5565b5b611d928c828d01611ae9565b92509250509295985092959850929598565b600060039050919050565b600081905092915050565b6000819050919050565b611dcd81611b8c565b82525050565b600082825260208201905092915050565b6000611def82611a1e565b611df98185611dd3565b9350611e09818560208601611a3a565b611e1281611a64565b840191505092915050565b600060a083016000830151611e356000860182611dc4565b5060208301518482036020860152611e4d8282611de4565b91505060408301518482036040860152611e678282611de4565b91505060608301518482036060860152611e818282611de4565b91505060808301518482036080860152611e9b8282611de4565b9150508091505092915050565b6000611eb48383611e1d565b905092915050565b6000602082019050919050565b6000611ed482611da4565b611ede8185611daf565b935083602082028501611ef085611dba565b8060005b85811015611f2c5784840389528151611f0d8582611ea8565b9450611f1883611ebc565b925060208a01995050600181019050611ef4565b50829750879550505050505092915050565b60006020820190508181036000830152611f588184611ec9565b905092915050565b600073ffffffffffffffffffffffffffffffffffffffff82169050919050565b6000611f8b82611f60565b9050919050565b611f9b81611f80565b82525050565b6000602082019050611fb66000830184611f92565b92915050565b6000806000806000806000806080898b031215611fdc57611fdb611ad0565b5b600089013567ffffffffffffffff811115611ffa57611ff9611ad5565b5b6120068b828c01611ae9565b9850985050602089013567ffffffffffffffff81111561202957612028611ad5565b5b6120358b828c01611ae9565b9650965050604089013567ffffffffffffffff81111561205857612057611ad5565b5b6120648b828c01611ae9565b9450945050606089013567ffffffffffffffff81111561208757612086611ad5565b5b6120938b828c01611ae9565b92509250509295985092959890939650565b600080600080600080600080600060a08a8c0312156120c7576120c6611ad0565b5b60008a013567ffffffffffffffff8111156120e5576120e4611ad5565b5b6120f18c828d01611ae9565b995099505060208a013567ffffffffffffffff81111561211457612113611ad5565b5b6121208c828d01611ae9565b975097505060408a013567ffffffffffffffff81111561214357612142611ad5565b5b61214f8c828d01611ae9565b955095505060608a013567ffffffffffffffff81111561217257612171611ad5565b5b61217e8c828d01611ae9565b935093505060806121918c828d01611bad565b9150509295985092959850929598565b600060039050919050565b600081905092915050565b6000819050919050565b600060a0830160008301516121d96000860182611dc4565b50602083015184820360208601526121f18282611de4565b9150506040830151848203604086015261220b8282611de4565b915050606083015184820360608601526122258282611de4565b9150506080830151848203608086015261223f8282611de4565b9150508091505092915050565b600061225883836121c1565b905092915050565b6000602082019050919050565b6000612278826121a1565b61228281856121ac565b935083602082028501612294856121b7565b8060005b858110156122d057848403895281516122b1858261224c565b94506122bc83612260565b925060208a01995050600181019050612298565b50829750879550505050505092915050565b600060208201905081810360008301526122fc818461226d565b905092915050565b7f4e487b7100000000000000000000000000000000000000000000000000000000600052602260045260246000fd5b6000600282049050600182168061234b57607f821691505b60208210810361235e5761235d612304565b5b50919050565b600082905092915050565b7f4e487b7100000000000000000000000000000000000000000000000000000000600052604160045260246000fd5b60008190508160005260206000209050919050565b60006020601f8301049050919050565b600082821b905092915050565b6000600883026124007fffffffffffffffffffffffffffffffffffffffffffffffffffffffffffffffff826123c3565b61240a86836123c3565b95508019841693508086168417925050509392505050565b6000819050919050565b600061244761244261243d84611b8c565b612422565b611b8c565b9050919050565b6000819050919050565b6124618361242c565b61247561246d8261244e565b8484546123d0565b825550505050565b600090565b61248a61247d565b612495818484612458565b505050565b5b818110156124b9576124ae600082612482565b60018101905061249b565b5050565b601f8211156124fe576124cf8161239e565b6124d8846123b3565b810160208510156124e7578190505b6124fb6124f3856123b3565b83018261249a565b50505b505050565b600082821c905092915050565b600061252160001984600802612503565b1980831691505092915050565b600061253a8383612510565b9150826002028217905092915050565b6125548383612364565b67ffffffffffffffff81111561256d5761256c61236f565b5b6125778254612333565b6125828282856124bd565b6000601f8311600181146125b1576000841561259f578287013590505b6125a9858261252e565b865550612611565b601f1984166125bf8661239e565b60005b828110156125e7578489013582556001820191506020850194506020810190506125c2565b868310156126045784890135612600601f891682612510565b8355505b6001600288020188555050505b50505050505050565b7f496e76616c696420696400000000000000000000000000000000000000000000600082015250565b6000612650600a83611a29565b915061265b8261261a565b602082019050919050565b6000602082019050818103600083015261267f81612643565b9050919050565b7f4e487b7100000000000000000000000000000000000000000000000000000000600052603260045260246000fd5b6126be82611a1e565b67ffffffffffffffff8111156126d7576126d661236f565b5b6126e18254612333565b6126ec8282856124bd565b600060209050601f83116001811461271f576000841561270d578287015190505b612717858261252e565b86555061277f565b601f19841661272d8661239e565b60005b8281101561275557848901518255600182019150602085019450602081019050612730565b86831015612772578489015161276e601f891682612510565b8355505b6001600288020188555050505b505050505050565b7f50726f6a6563747320746f206265206c657373207468616e2033000000000000600082015250565b60006127bd601a83611a29565b91506127c882612787565b602082019050919050565b600060208201905081810360008301526127ec816127b0565b9050919050565b7f4e487b7100000000000000000000000000000000000000000000000000000000600052601160045260246000fd5b600061282d82611c6d565b915062ffffff8203612842576128416127f3565b5b600182019050919050565b7f496e76616c69642070726f6a6563740000000000000000000000000000000000600082015250565b6000612883600f83611a29565b915061288e8261284d565b602082019050919050565b600060208201905081810360008301526128b281612876565b9050919050565b7f45786365656473206e756d626572206f6620656475636174696f6e0000000000600082015250565b60006128ef601b83611a29565b91506128fa826128b9565b602082019050919050565b6000602082019050818103600083015261291e816128e2565b905091905056fea264697066735822122027cb15c1d7bc254605f3d0e4908e22517c7aa7691148477b01745c01c1a416eb64736f6c63430008130033516d58563859373342525136784c56796d5575445270726f445168334245434a44677773327143457a3432564370516d585550645933425654667564455854735272734751626a514159544a4e6e5967396a68523533754c6f517672",
  "linkReferences": {},
  "deployedLinkReferences": {}
}